{
  "contractName": "TokenVault",
  "abi": [
    {
      "anonymous": false,
      "inputs": [
        {
          "indexed": true,
          "internalType": "address",
          "name": "owner",
          "type": "address"
        },
        {
          "indexed": true,
          "internalType": "address",
          "name": "spender",
          "type": "address"
        },
        {
          "indexed": false,
          "internalType": "uint256",
          "name": "value",
          "type": "uint256"
        }
      ],
      "name": "Approval",
      "type": "event"
    },
    {
      "anonymous": false,
      "inputs": [
        {
          "indexed": false,
          "internalType": "uint8",
          "name": "version",
          "type": "uint8"
        }
      ],
      "name": "Initialized",
      "type": "event"
    },
    {
      "anonymous": false,
      "inputs": [
        {
          "indexed": true,
          "internalType": "address",
          "name": "from",
          "type": "address"
        },
        {
          "indexed": true,
          "internalType": "address",
          "name": "to",
          "type": "address"
        },
        {
          "indexed": false,
          "internalType": "uint256",
          "name": "value",
          "type": "uint256"
        }
      ],
      "name": "Transfer",
      "type": "event"
    },
    {
      "inputs": [],
      "name": "MIN_BID_INCREASE",
      "outputs": [
        {
          "internalType": "uint256",
          "name": "",
          "type": "uint256"
        }
      ],
      "stateMutability": "view",
      "type": "function"
    },
    {
      "inputs": [],
      "name": "MIN_VOTE_PERCENTAGE",
      "outputs": [
        {
          "internalType": "uint256",
          "name": "",
          "type": "uint256"
        }
      ],
      "stateMutability": "view",
      "type": "function"
    },
    {
      "inputs": [],
      "name": "RESERVE_PRICE",
      "outputs": [
        {
          "internalType": "uint256",
          "name": "",
          "type": "uint256"
        }
      ],
      "stateMutability": "view",
      "type": "function"
    },
    {
      "inputs": [
        {
          "internalType": "address",
          "name": "owner",
          "type": "address"
        },
        {
          "internalType": "address",
          "name": "spender",
          "type": "address"
        }
      ],
      "name": "allowance",
      "outputs": [
        {
          "internalType": "uint256",
          "name": "",
          "type": "uint256"
        }
      ],
      "stateMutability": "view",
      "type": "function"
    },
    {
      "inputs": [
        {
          "internalType": "address",
          "name": "spender",
          "type": "address"
        },
        {
          "internalType": "uint256",
          "name": "amount",
          "type": "uint256"
        }
      ],
      "name": "approve",
      "outputs": [
        {
          "internalType": "bool",
          "name": "",
          "type": "bool"
        }
      ],
      "stateMutability": "nonpayable",
      "type": "function"
    },
    {
      "inputs": [],
      "name": "aunctionEnd",
      "outputs": [
        {
          "internalType": "uint256",
          "name": "",
          "type": "uint256"
        }
      ],
      "stateMutability": "view",
      "type": "function"
    },
    {
      "inputs": [],
      "name": "aunctionLength",
      "outputs": [
        {
          "internalType": "uint256",
          "name": "",
          "type": "uint256"
        }
      ],
      "stateMutability": "view",
      "type": "function"
    },
    {
      "inputs": [],
      "name": "aunctionState",
      "outputs": [
        {
          "internalType": "enum TokenVault.State",
          "name": "",
          "type": "uint8"
        }
      ],
      "stateMutability": "view",
      "type": "function"
    },
    {
      "inputs": [
        {
          "internalType": "address",
          "name": "account",
          "type": "address"
        }
      ],
      "name": "balanceOf",
      "outputs": [
        {
          "internalType": "uint256",
          "name": "",
          "type": "uint256"
        }
      ],
      "stateMutability": "view",
      "type": "function"
    },
    {
      "inputs": [],
      "name": "curator",
      "outputs": [
        {
          "internalType": "address",
          "name": "",
          "type": "address"
        }
      ],
      "stateMutability": "view",
      "type": "function"
    },
    {
      "inputs": [],
      "name": "decimals",
      "outputs": [
        {
          "internalType": "uint8",
          "name": "",
          "type": "uint8"
        }
      ],
      "stateMutability": "view",
      "type": "function"
    },
    {
      "inputs": [
        {
          "internalType": "address",
          "name": "spender",
          "type": "address"
        },
        {
          "internalType": "uint256",
          "name": "subtractedValue",
          "type": "uint256"
        }
      ],
      "name": "decreaseAllowance",
      "outputs": [
        {
          "internalType": "bool",
          "name": "",
          "type": "bool"
        }
      ],
      "stateMutability": "nonpayable",
      "type": "function"
    },
    {
      "inputs": [],
      "name": "fee",
      "outputs": [
        {
          "internalType": "uint256",
          "name": "",
          "type": "uint256"
        }
      ],
      "stateMutability": "view",
      "type": "function"
    },
    {
      "inputs": [],
      "name": "id",
      "outputs": [
        {
          "internalType": "uint256",
          "name": "",
          "type": "uint256"
        }
      ],
      "stateMutability": "view",
      "type": "function"
    },
    {
      "inputs": [
        {
          "internalType": "address",
          "name": "spender",
          "type": "address"
        },
        {
          "internalType": "uint256",
          "name": "addedValue",
          "type": "uint256"
        }
      ],
      "name": "increaseAllowance",
      "outputs": [
        {
          "internalType": "bool",
          "name": "",
          "type": "bool"
        }
      ],
      "stateMutability": "nonpayable",
      "type": "function"
    },
    {
      "inputs": [],
      "name": "livePrice",
      "outputs": [
        {
          "internalType": "uint256",
          "name": "",
          "type": "uint256"
        }
      ],
      "stateMutability": "view",
      "type": "function"
    },
    {
      "inputs": [],
      "name": "name",
      "outputs": [
        {
          "internalType": "string",
          "name": "",
          "type": "string"
        }
      ],
      "stateMutability": "view",
      "type": "function"
    },
    {
      "inputs": [
        {
          "internalType": "address",
          "name": "",
          "type": "address"
        },
        {
          "internalType": "address",
          "name": "",
          "type": "address"
        },
        {
          "internalType": "uint256",
          "name": "",
          "type": "uint256"
        },
        {
          "internalType": "bytes",
          "name": "",
          "type": "bytes"
        }
      ],
      "name": "onERC721Received",
      "outputs": [
        {
          "internalType": "bytes4",
          "name": "",
          "type": "bytes4"
        }
      ],
      "stateMutability": "nonpayable",
      "type": "function"
    },
    {
      "inputs": [],
      "name": "symbol",
      "outputs": [
        {
          "internalType": "string",
          "name": "",
          "type": "string"
        }
      ],
      "stateMutability": "view",
      "type": "function"
    },
    {
      "inputs": [],
      "name": "token",
      "outputs": [
        {
          "internalType": "address",
          "name": "",
          "type": "address"
        }
      ],
      "stateMutability": "view",
      "type": "function"
    },
    {
      "inputs": [],
      "name": "totalSupply",
      "outputs": [
        {
          "internalType": "uint256",
          "name": "",
          "type": "uint256"
        }
      ],
      "stateMutability": "view",
      "type": "function"
    },
    {
      "inputs": [
        {
          "internalType": "address",
          "name": "to",
          "type": "address"
        },
        {
          "internalType": "uint256",
          "name": "amount",
          "type": "uint256"
        }
      ],
      "name": "transfer",
      "outputs": [
        {
          "internalType": "bool",
          "name": "",
          "type": "bool"
        }
      ],
      "stateMutability": "nonpayable",
      "type": "function"
    },
    {
      "inputs": [
        {
          "internalType": "address",
          "name": "from",
          "type": "address"
        },
        {
          "internalType": "address",
          "name": "to",
          "type": "address"
        },
        {
          "internalType": "uint256",
          "name": "amount",
          "type": "uint256"
        }
      ],
      "name": "transferFrom",
      "outputs": [
        {
          "internalType": "bool",
          "name": "",
          "type": "bool"
        }
      ],
      "stateMutability": "nonpayable",
      "type": "function"
    },
    {
      "inputs": [
        {
          "internalType": "address",
          "name": "",
          "type": "address"
        }
      ],
      "name": "userPrices",
      "outputs": [
        {
          "internalType": "uint256",
          "name": "",
          "type": "uint256"
        }
      ],
      "stateMutability": "view",
      "type": "function"
    },
    {
      "inputs": [],
      "name": "votingTokens",
      "outputs": [
        {
          "internalType": "uint256",
          "name": "",
          "type": "uint256"
        }
      ],
      "stateMutability": "view",
      "type": "function"
    },
    {
      "inputs": [],
      "name": "winning",
      "outputs": [
        {
          "internalType": "address payable",
          "name": "",
          "type": "address"
        }
      ],
      "stateMutability": "view",
      "type": "function"
    },
    {
      "inputs": [
        {
          "internalType": "address",
          "name": "_curator",
          "type": "address"
        },
        {
          "internalType": "string",
          "name": "_name",
          "type": "string"
        },
        {
          "internalType": "string",
          "name": "_symbol",
          "type": "string"
        },
        {
          "internalType": "uint256",
          "name": "_supply",
          "type": "uint256"
        },
        {
          "internalType": "address",
          "name": "_token",
          "type": "address"
        },
        {
          "internalType": "uint256",
          "name": "_id",
          "type": "uint256"
        }
      ],
      "name": "initialize",
      "outputs": [],
      "stateMutability": "nonpayable",
      "type": "function"
    },
    {
      "inputs": [],
      "name": "start",
      "outputs": [],
      "stateMutability": "payable",
      "type": "function"
    },
    {
      "inputs": [],
      "name": "bid",
      "outputs": [],
      "stateMutability": "payable",
      "type": "function"
    },
    {
      "inputs": [],
      "name": "end",
      "outputs": [],
      "stateMutability": "nonpayable",
      "type": "function"
    },
    {
      "inputs": [],
      "name": "redeem",
      "outputs": [],
      "stateMutability": "nonpayable",
      "type": "function"
    },
    {
      "inputs": [],
      "name": "cash",
      "outputs": [],
      "stateMutability": "nonpayable",
      "type": "function"
    }
  ],
  "bytecode": "0x608060405234801561001057600080fd5b50613522806100206000396000f3fe6080604052600436106101e35760003560e01c8063961be39111610102578063c91de64911610095578063ddca3f4311610064578063ddca3f43146106d2578063e66f53b7146106fd578063efbe1c1c14610728578063fc0c546a1461073f576101e3565b8063c91de64914610602578063d8aa4a6a1461063f578063dd21d6041461066a578063dd62ed3e14610695576101e3565b8063a9059cbb116100d1578063a9059cbb14610579578063af640d0f146105b6578063be040fb0146105e1578063be9a6555146105f8576101e3565b8063961be391146104cf5780639a4e6d34146104e65780639f958f5714610511578063a457c2d71461053c576101e3565b8063313ce5671161017a57806370a082311161014957806370a082311461041157806374869a781461044e578063853a1b901461047957806395d89b41146104a4576101e3565b8063313ce56714610353578063395093511461037e5780636a0c3050146103bb5780636da84e6c146103e6576101e3565b806318160ddd116101b657806318160ddd146102b65780631998aeef146102e157806323b872dd146102eb5780632a47c82914610328576101e3565b806306fdde03146101e857806308658d3b14610213578063095ea7b31461023c578063150b7a0214610279575b600080fd5b3480156101f457600080fd5b506101fd61076a565b60405161020a91906127f2565b60405180910390f35b34801561021f57600080fd5b5061023a600480360381019061023591906121fa565b6107fc565b005b34801561024857600080fd5b50610263600480360381019061025e91906122b3565b610868565b60405161027091906127a1565b60405180910390f35b34801561028557600080fd5b506102a0600480360381019061029b919061217f565b61088b565b6040516102ad91906127bc565b60405180910390f35b3480156102c257600080fd5b506102cb61089f565b6040516102d89190612af4565b60405180910390f35b6102e96108a9565b005b3480156102f757600080fd5b50610312600480360381019061030d9190612130565b610acb565b60405161031f91906127a1565b60405180910390f35b34801561033457600080fd5b5061033d610afa565b60405161034a9190612af4565b60405180910390f35b34801561035f57600080fd5b50610368610b00565b6040516103759190612b0f565b60405180910390f35b34801561038a57600080fd5b506103a560048036038101906103a091906122b3565b610b09565b6040516103b291906127a1565b60405180910390f35b3480156103c757600080fd5b506103d0610b40565b6040516103dd9190612af4565b60405180910390f35b3480156103f257600080fd5b506103fb610b46565b6040516104089190612af4565b60405180910390f35b34801561041d57600080fd5b50610438600480360381019061043391906120cb565b610b4c565b6040516104459190612af4565b60405180910390f35b34801561045a57600080fd5b50610463610b95565b6040516104709190612af4565b60405180910390f35b34801561048557600080fd5b5061048e610b9a565b60405161049b9190612718565b60405180910390f35b3480156104b057600080fd5b506104b9610bc0565b6040516104c691906127f2565b60405180910390f35b3480156104db57600080fd5b506104e4610c52565b005b3480156104f257600080fd5b506104fb610d9e565b6040516105089190612af4565b60405180910390f35b34801561051d57600080fd5b50610526610da4565b6040516105339190612af4565b60405180910390f35b34801561054857600080fd5b50610563600480360381019061055e91906122b3565b610da9565b60405161057091906127a1565b60405180910390f35b34801561058557600080fd5b506105a0600480360381019061059b91906122b3565b610e20565b6040516105ad91906127a1565b60405180910390f35b3480156105c257600080fd5b506105cb610e43565b6040516105d89190612af4565b60405180910390f35b3480156105ed57600080fd5b506105f6610e49565b005b610600611002565b005b34801561060e57600080fd5b50610629600480360381019061062491906120cb565b611203565b6040516106369190612af4565b60405180910390f35b34801561064b57600080fd5b5061065461121b565b60405161066191906127d7565b60405180910390f35b34801561067657600080fd5b5061067f61122e565b60405161068c9190612af4565b60405180910390f35b3480156106a157600080fd5b506106bc60048036038101906106b791906120f4565b61123a565b6040516106c99190612af4565b60405180910390f35b3480156106de57600080fd5b506106e76112c1565b6040516106f49190612af4565b60405180910390f35b34801561070957600080fd5b506107126112c7565b60405161071f91906126fd565b60405180910390f35b34801561073457600080fd5b5061073d6112ed565b005b34801561074b57600080fd5b506107546114fc565b60405161076191906126fd565b60405180910390f35b60606036805461077990612e1d565b80601f01602080910402602001604051908101604052809291908181526020018280546107a590612e1d565b80156107f25780601f106107c7576101008083540402835291602001916107f2565b820191906000526020600020905b8154815290600101906020018083116107d557829003601f168201915b5050505050905090565b6108068585611522565b61080e61157f565b81609760006101000a81548173ffffffffffffffffffffffffffffffffffffffff021916908373ffffffffffffffffffffffffffffffffffffffff1602179055508060988190555061086086846115d0565b505050505050565b600080610873611731565b9050610880818585611739565b600191505092915050565b600063150b7a0260e01b9050949350505050565b6000603554905090565b600160038111156108e3577f4e487b7100000000000000000000000000000000000000000000000000000000600052602160045260246000fd5b609c60149054906101000a900460ff16600381111561092b577f4e487b7100000000000000000000000000000000000000000000000000000000600052602160045260246000fd5b1461096b576040517f08c379a0000000000000000000000000000000000000000000000000000000008152600401610962906129b4565b60405180910390fd5b60006103e8603261097c9190612bd8565b905080609b5461098c9190612c5f565b6103e83461099a9190612c5f565b10156109db576040517f08c379a00000000000000000000000000000000000000000000000000000000081526004016109d2906129d4565b60405180910390fd5b609a544210610a1f576040517f08c379a0000000000000000000000000000000000000000000000000000000008152600401610a1690612934565b60405180910390fd5b61038442609a54610a309190612cb9565b1015610a5257610384609a6000828254610a4a9190612bd8565b925050819055505b610a80609c60009054906101000a900473ffffffffffffffffffffffffffffffffffffffff16609b54611904565b34609b8190555033609c60006101000a81548173ffffffffffffffffffffffffffffffffffffffff021916908373ffffffffffffffffffffffffffffffffffffffff16021790555050565b600080610ad6611731565b9050610ae38582856119ba565b610aee858585611a46565b60019150509392505050565b60995481565b60006012905090565b600080610b14611731565b9050610b35818585610b26858961123a565b610b309190612bd8565b611739565b600191505092915050565b609a5481565b609b5481565b6000603360008373ffffffffffffffffffffffffffffffffffffffff1673ffffffffffffffffffffffffffffffffffffffff168152602001908152602001600020549050919050565b603281565b609c60009054906101000a900473ffffffffffffffffffffffffffffffffffffffff1681565b606060378054610bcf90612e1d565b80601f0160208091040260200160405190810160405280929190818152602001828054610bfb90612e1d565b8015610c485780601f10610c1d57610100808354040283529160200191610c48565b820191906000526020600020905b815481529060010190602001808311610c2b57829003601f168201915b5050505050905090565b60026003811115610c8c577f4e487b7100000000000000000000000000000000000000000000000000000000600052602160045260246000fd5b609c60149054906101000a900460ff166003811115610cd4577f4e487b7100000000000000000000000000000000000000000000000000000000600052602160045260246000fd5b14610d14576040517f08c379a0000000000000000000000000000000000000000000000000000000008152600401610d0b90612954565b60405180910390fd5b6000610d1f33610b4c565b905060008111610d64576040517f08c379a0000000000000000000000000000000000000000000000000000000008152600401610d5b90612834565b60405180910390fd5b6000610d6e61089f565b4783610d7a9190612c5f565b610d849190612c2e565b9050610d903383611cca565b610d9a3382611904565b5050565b609f5481565b60fa81565b600080610db4611731565b90506000610dc2828661123a565b905083811015610e07576040517f08c379a0000000000000000000000000000000000000000000000000000000008152600401610dfe90612ab4565b60405180910390fd5b610e148286868403611739565b60019250505092915050565b600080610e2b611731565b9050610e38818585611a46565b600191505092915050565b60985481565b60006003811115610e83577f4e487b7100000000000000000000000000000000000000000000000000000000600052602160045260246000fd5b609c60149054906101000a900460ff166003811115610ecb577f4e487b7100000000000000000000000000000000000000000000000000000000600052602160045260246000fd5b14610f0b576040517f08c379a0000000000000000000000000000000000000000000000000000000008152600401610f0290612a94565b60405180910390fd5b610f1c33610f1761089f565b611cca565b609760009054906101000a900473ffffffffffffffffffffffffffffffffffffffff1673ffffffffffffffffffffffffffffffffffffffff166323b872dd30336098546040518463ffffffff1660e01b8152600401610f7d9392919061276a565b600060405180830381600087803b158015610f9757600080fd5b505af1158015610fab573d6000803e3d6000fd5b505050506003609c60146101000a81548160ff02191690836003811115610ffb577f4e487b7100000000000000000000000000000000000000000000000000000000600052602160045260246000fd5b0217905550565b6000600381111561103c577f4e487b7100000000000000000000000000000000000000000000000000000000600052602160045260246000fd5b609c60149054906101000a900460ff166003811115611084577f4e487b7100000000000000000000000000000000000000000000000000000000600052602160045260246000fd5b146110c4576040517f08c379a00000000000000000000000000000000000000000000000000000000081526004016110bb90612994565b60405180910390fd5b67011c37937e080000341161110e576040517f08c379a000000000000000000000000000000000000000000000000000000000815260040161110590612894565b60405180910390fd5b60fa609f541015611154576040517f08c379a000000000000000000000000000000000000000000000000000000000815260040161114b906129f4565b60405180910390fd5b609954426111629190612bd8565b609a819055506001609c60146101000a81548160ff021916908360038111156111b4577f4e487b7100000000000000000000000000000000000000000000000000000000600052602160045260246000fd5b021790555034609b8190555033609c60006101000a81548173ffffffffffffffffffffffffffffffffffffffff021916908373ffffffffffffffffffffffffffffffffffffffff160217905550565b60a06020528060005260406000206000915090505481565b609c60149054906101000a900460ff1681565b67011c37937e08000081565b6000603460008473ffffffffffffffffffffffffffffffffffffffff1673ffffffffffffffffffffffffffffffffffffffff16815260200190815260200160002060008373ffffffffffffffffffffffffffffffffffffffff1673ffffffffffffffffffffffffffffffffffffffff16815260200190815260200160002054905092915050565b609e5481565b609d60009054906101000a900473ffffffffffffffffffffffffffffffffffffffff1681565b60016003811115611327577f4e487b7100000000000000000000000000000000000000000000000000000000600052602160045260246000fd5b609c60149054906101000a900460ff16600381111561136f577f4e487b7100000000000000000000000000000000000000000000000000000000600052602160045260246000fd5b146113af576040517f08c379a00000000000000000000000000000000000000000000000000000000081526004016113a6906128b4565b60405180910390fd5b609a544210156113f4576040517f08c379a00000000000000000000000000000000000000000000000000000000081526004016113eb90612974565b60405180910390fd5b609760009054906101000a900473ffffffffffffffffffffffffffffffffffffffff1673ffffffffffffffffffffffffffffffffffffffff166323b872dd30609c60009054906101000a900473ffffffffffffffffffffffffffffffffffffffff166098546040518463ffffffff1660e01b815260040161147793929190612733565b600060405180830381600087803b15801561149157600080fd5b505af11580156114a5573d6000803e3d6000fd5b505050506002609c60146101000a81548160ff021916908360038111156114f5577f4e487b7100000000000000000000000000000000000000000000000000000000600052602160045260246000fd5b0217905550565b609760009054906101000a900473ffffffffffffffffffffffffffffffffffffffff1681565b600060019054906101000a900460ff16611571576040517f08c379a000000000000000000000000000000000000000000000000000000000815260040161156890612a74565b60405180910390fd5b61157b8282611ea3565b5050565b600060019054906101000a900460ff166115ce576040517f08c379a00000000000000000000000000000000000000000000000000000000081526004016115c590612a74565b60405180910390fd5b565b600073ffffffffffffffffffffffffffffffffffffffff168273ffffffffffffffffffffffffffffffffffffffff161415611640576040517f08c379a000000000000000000000000000000000000000000000000000000000815260040161163790612ad4565b60405180910390fd5b61164c60008383611f24565b806035600082825461165e9190612bd8565b9250508190555080603360008473ffffffffffffffffffffffffffffffffffffffff1673ffffffffffffffffffffffffffffffffffffffff16815260200190815260200160002060008282546116b49190612bd8565b925050819055508173ffffffffffffffffffffffffffffffffffffffff16600073ffffffffffffffffffffffffffffffffffffffff167fddf252ad1be2c89b69c2b068fc378daa952ba7f163c4a11628f55a4df523b3ef836040516117199190612af4565b60405180910390a361172d60008383611f29565b5050565b600033905090565b600073ffffffffffffffffffffffffffffffffffffffff168373ffffffffffffffffffffffffffffffffffffffff1614156117a9576040517f08c379a00000000000000000000000000000000000000000000000000000000081526004016117a090612a54565b60405180910390fd5b600073ffffffffffffffffffffffffffffffffffffffff168273ffffffffffffffffffffffffffffffffffffffff161415611819576040517f08c379a000000000000000000000000000000000000000000000000000000000815260040161181090612874565b60405180910390fd5b80603460008573ffffffffffffffffffffffffffffffffffffffff1673ffffffffffffffffffffffffffffffffffffffff16815260200190815260200160002060008473ffffffffffffffffffffffffffffffffffffffff1673ffffffffffffffffffffffffffffffffffffffff168152602001908152602001600020819055508173ffffffffffffffffffffffffffffffffffffffff168373ffffffffffffffffffffffffffffffffffffffff167f8c5be1e5ebec7d5bd14f71427d1e84f3dd0314c0f7b2291e5b200ac8c7c3b925836040516118f79190612af4565b60405180910390a3505050565b60008273ffffffffffffffffffffffffffffffffffffffff16826175309060405161192e906126e8565b600060405180830381858888f193505050503d806000811461196c576040519150601f19603f3d011682016040523d82523d6000602084013e611971565b606091505b50509050806119b5576040517f08c379a00000000000000000000000000000000000000000000000000000000081526004016119ac906128d4565b60405180910390fd5b505050565b60006119c6848461123a565b90507fffffffffffffffffffffffffffffffffffffffffffffffffffffffffffffffff8114611a405781811015611a32576040517f08c379a0000000000000000000000000000000000000000000000000000000008152600401611a29906128f4565b60405180910390fd5b611a3f8484848403611739565b5b50505050565b600073ffffffffffffffffffffffffffffffffffffffff168373ffffffffffffffffffffffffffffffffffffffff161415611ab6576040517f08c379a0000000000000000000000000000000000000000000000000000000008152600401611aad90612a34565b60405180910390fd5b600073ffffffffffffffffffffffffffffffffffffffff168273ffffffffffffffffffffffffffffffffffffffff161415611b26576040517f08c379a0000000000000000000000000000000000000000000000000000000008152600401611b1d90612814565b60405180910390fd5b611b31838383611f24565b6000603360008573ffffffffffffffffffffffffffffffffffffffff1673ffffffffffffffffffffffffffffffffffffffff16815260200190815260200160002054905081811015611bb8576040517f08c379a0000000000000000000000000000000000000000000000000000000008152600401611baf90612914565b60405180910390fd5b818103603360008673ffffffffffffffffffffffffffffffffffffffff1673ffffffffffffffffffffffffffffffffffffffff1681526020019081526020016000208190555081603360008573ffffffffffffffffffffffffffffffffffffffff1673ffffffffffffffffffffffffffffffffffffffff1681526020019081526020016000206000828254611c4d9190612bd8565b925050819055508273ffffffffffffffffffffffffffffffffffffffff168473ffffffffffffffffffffffffffffffffffffffff167fddf252ad1be2c89b69c2b068fc378daa952ba7f163c4a11628f55a4df523b3ef84604051611cb19190612af4565b60405180910390a3611cc4848484611f29565b50505050565b600073ffffffffffffffffffffffffffffffffffffffff168273ffffffffffffffffffffffffffffffffffffffff161415611d3a576040517f08c379a0000000000000000000000000000000000000000000000000000000008152600401611d3190612a14565b60405180910390fd5b611d4682600083611f24565b6000603360008473ffffffffffffffffffffffffffffffffffffffff1673ffffffffffffffffffffffffffffffffffffffff16815260200190815260200160002054905081811015611dcd576040517f08c379a0000000000000000000000000000000000000000000000000000000008152600401611dc490612854565b60405180910390fd5b818103603360008573ffffffffffffffffffffffffffffffffffffffff1673ffffffffffffffffffffffffffffffffffffffff168152602001908152602001600020819055508160356000828254611e259190612cb9565b92505081905550600073ffffffffffffffffffffffffffffffffffffffff168373ffffffffffffffffffffffffffffffffffffffff167fddf252ad1be2c89b69c2b068fc378daa952ba7f163c4a11628f55a4df523b3ef84604051611e8a9190612af4565b60405180910390a3611e9e83600084611f29565b505050565b600060019054906101000a900460ff16611ef2576040517f08c379a0000000000000000000000000000000000000000000000000000000008152600401611ee990612a74565b60405180910390fd5b8160369080519060200190611f08929190611f2e565b508060379080519060200190611f1f929190611f2e565b505050565b505050565b505050565b828054611f3a90612e1d565b90600052602060002090601f016020900481019282611f5c5760008555611fa3565b82601f10611f7557805160ff1916838001178555611fa3565b82800160010185558215611fa3579182015b82811115611fa2578251825591602001919060010190611f87565b5b509050611fb09190611fb4565b5090565b5b80821115611fcd576000816000905550600101611fb5565b5090565b6000611fe4611fdf84612b4f565b612b2a565b905082815260208101848484011115611ffc57600080fd5b612007848285612ddb565b509392505050565b600061202261201d84612b80565b612b2a565b90508281526020810184848401111561203a57600080fd5b612045848285612ddb565b509392505050565b60008135905061205c816134be565b92915050565b600082601f83011261207357600080fd5b8135612083848260208601611fd1565b91505092915050565b600082601f83011261209d57600080fd5b81356120ad84826020860161200f565b91505092915050565b6000813590506120c5816134d5565b92915050565b6000602082840312156120dd57600080fd5b60006120eb8482850161204d565b91505092915050565b6000806040838503121561210757600080fd5b60006121158582860161204d565b92505060206121268582860161204d565b9150509250929050565b60008060006060848603121561214557600080fd5b60006121538682870161204d565b93505060206121648682870161204d565b9250506040612175868287016120b6565b9150509250925092565b6000806000806080858703121561219557600080fd5b60006121a38782880161204d565b94505060206121b48782880161204d565b93505060406121c5878288016120b6565b925050606085013567ffffffffffffffff8111156121e257600080fd5b6121ee87828801612062565b91505092959194509250565b60008060008060008060c0878903121561221357600080fd5b600061222189828a0161204d565b965050602087013567ffffffffffffffff81111561223e57600080fd5b61224a89828a0161208c565b955050604087013567ffffffffffffffff81111561226757600080fd5b61227389828a0161208c565b945050606061228489828a016120b6565b935050608061229589828a0161204d565b92505060a06122a689828a016120b6565b9150509295509295509295565b600080604083850312156122c657600080fd5b60006122d48582860161204d565b92505060206122e5858286016120b6565b9150509250929050565b6122f881612d93565b82525050565b61230781612cff565b82525050565b61231681612ced565b82525050565b61232581612d11565b82525050565b61233481612d1d565b82525050565b61234381612da5565b82525050565b600061235482612bb1565b61235e8185612bc7565b935061236e818560208601612dea565b61237781612f6b565b840191505092915050565b600061238f602383612bc7565b915061239a82612f7c565b604082019050919050565b60006123b2601283612bc7565b91506123bd82612fcb565b602082019050919050565b60006123d5602283612bc7565b91506123e082612ff4565b604082019050919050565b60006123f8602283612bc7565b915061240382613043565b604082019050919050565b600061241b602c83612bc7565b915061242682613092565b604082019050919050565b600061243e601b83612bc7565b9150612449826130e1565b602082019050919050565b6000612461601383612bc7565b915061246c8261310a565b602082019050919050565b6000612484601d83612bc7565b915061248f82613133565b602082019050919050565b60006124a7602683612bc7565b91506124b28261315c565b604082019050919050565b60006124ca601283612bc7565b91506124d5826131ab565b602082019050919050565b60006124ed601983612bc7565b91506124f8826131d4565b602082019050919050565b6000612510601283612bc7565b915061251b826131fd565b602082019050919050565b6000612533601283612bc7565b915061253e82613226565b602082019050919050565b6000612556601483612bc7565b91506125618261324f565b602082019050919050565b6000612579600b83612bc7565b915061258482613278565b602082019050919050565b600061259c601883612bc7565b91506125a7826132a1565b602082019050919050565b60006125bf602183612bc7565b91506125ca826132ca565b604082019050919050565b60006125e2602583612bc7565b91506125ed82613319565b604082019050919050565b6000612605600083612bbc565b915061261082613368565b600082019050919050565b6000612628602483612bc7565b91506126338261336b565b604082019050919050565b600061264b602b83612bc7565b9150612656826133ba565b604082019050919050565b600061266e600983612bc7565b915061267982613409565b602082019050919050565b6000612691602583612bc7565b915061269c82613432565b604082019050919050565b60006126b4601f83612bc7565b91506126bf82613481565b602082019050919050565b6126d381612d7c565b82525050565b6126e281612d86565b82525050565b60006126f3826125f8565b9150819050919050565b6000602082019050612712600083018461230d565b92915050565b600060208201905061272d60008301846122fe565b92915050565b6000606082019050612748600083018661230d565b61275560208301856122ef565b61276260408301846126ca565b949350505050565b600060608201905061277f600083018661230d565b61278c602083018561230d565b61279960408301846126ca565b949350505050565b60006020820190506127b6600083018461231c565b92915050565b60006020820190506127d1600083018461232b565b92915050565b60006020820190506127ec600083018461233a565b92915050565b6000602082019050818103600083015261280c8184612349565b905092915050565b6000602082019050818103600083015261282d81612382565b9050919050565b6000602082019050818103600083015261284d816123a5565b9050919050565b6000602082019050818103600083015261286d816123c8565b9050919050565b6000602082019050818103600083015261288d816123eb565b9050919050565b600060208201905081810360008301526128ad8161240e565b9050919050565b600060208201905081810360008301526128cd81612431565b9050919050565b600060208201905081810360008301526128ed81612454565b9050919050565b6000602082019050818103600083015261290d81612477565b9050919050565b6000602082019050818103600083015261292d8161249a565b9050919050565b6000602082019050818103600083015261294d816124bd565b9050919050565b6000602082019050818103600083015261296d816124e0565b9050919050565b6000602082019050818103600083015261298d81612503565b9050919050565b600060208201905081810360008301526129ad81612526565b9050919050565b600060208201905081810360008301526129cd81612549565b9050919050565b600060208201905081810360008301526129ed8161256c565b9050919050565b60006020820190508181036000830152612a0d8161258f565b9050919050565b60006020820190508181036000830152612a2d816125b2565b9050919050565b60006020820190508181036000830152612a4d816125d5565b9050919050565b60006020820190508181036000830152612a6d8161261b565b9050919050565b60006020820190508181036000830152612a8d8161263e565b9050919050565b60006020820190508181036000830152612aad81612661565b9050919050565b60006020820190508181036000830152612acd81612684565b9050919050565b60006020820190508181036000830152612aed816126a7565b9050919050565b6000602082019050612b0960008301846126ca565b92915050565b6000602082019050612b2460008301846126d9565b92915050565b6000612b34612b45565b9050612b408282612e4f565b919050565b6000604051905090565b600067ffffffffffffffff821115612b6a57612b69612f3c565b5b612b7382612f6b565b9050602081019050919050565b600067ffffffffffffffff821115612b9b57612b9a612f3c565b5b612ba482612f6b565b9050602081019050919050565b600081519050919050565b600081905092915050565b600082825260208201905092915050565b6000612be382612d7c565b9150612bee83612d7c565b9250827fffffffffffffffffffffffffffffffffffffffffffffffffffffffffffffffff03821115612c2357612c22612e80565b5b828201905092915050565b6000612c3982612d7c565b9150612c4483612d7c565b925082612c5457612c53612eaf565b5b828204905092915050565b6000612c6a82612d7c565b9150612c7583612d7c565b9250817fffffffffffffffffffffffffffffffffffffffffffffffffffffffffffffffff0483118215151615612cae57612cad612e80565b5b828202905092915050565b6000612cc482612d7c565b9150612ccf83612d7c565b925082821015612ce257612ce1612e80565b5b828203905092915050565b6000612cf882612d5c565b9050919050565b6000612d0a82612d5c565b9050919050565b60008115159050919050565b60007fffffffff0000000000000000000000000000000000000000000000000000000082169050919050565b6000819050612d57826134aa565b919050565b600073ffffffffffffffffffffffffffffffffffffffff82169050919050565b6000819050919050565b600060ff82169050919050565b6000612d9e82612db7565b9050919050565b6000612db082612d49565b9050919050565b6000612dc282612dc9565b9050919050565b6000612dd482612d5c565b9050919050565b82818337600083830152505050565b60005b83811015612e08578082015181840152602081019050612ded565b83811115612e17576000848401525b50505050565b60006002820490506001821680612e3557607f821691505b60208210811415612e4957612e48612f0d565b5b50919050565b612e5882612f6b565b810181811067ffffffffffffffff82111715612e7757612e76612f3c565b5b80604052505050565b7f4e487b7100000000000000000000000000000000000000000000000000000000600052601160045260246000fd5b7f4e487b7100000000000000000000000000000000000000000000000000000000600052601260045260246000fd5b7f4e487b7100000000000000000000000000000000000000000000000000000000600052602160045260246000fd5b7f4e487b7100000000000000000000000000000000000000000000000000000000600052602260045260246000fd5b7f4e487b7100000000000000000000000000000000000000000000000000000000600052604160045260246000fd5b6000601f19601f8301169050919050565b7f45524332303a207472616e7366657220746f20746865207a65726f206164647260008201527f6573730000000000000000000000000000000000000000000000000000000000602082015250565b7f7a65726f20746f6b656e2062616c616e63650000000000000000000000000000600082015250565b7f45524332303a206275726e20616d6f756e7420657863656564732062616c616e60008201527f6365000000000000000000000000000000000000000000000000000000000000602082015250565b7f45524332303a20617070726f766520746f20746865207a65726f20616464726560008201527f7373000000000000000000000000000000000000000000000000000000000000602082015250565b7f73746172743a206e6f7420656e6f75676820657468657220746f20737461727460008201527f20616e2061756e6374696f6e0000000000000000000000000000000000000000602082015250565b7f61756e6374696f6e2068617320616c726561647920636c6f7365640000000000600082015250565b7f457468207472616e73666572206661696c656400000000000000000000000000600082015250565b7f45524332303a20696e73756666696369656e7420616c6c6f77616e6365000000600082015250565b7f45524332303a207472616e7366657220616d6f756e742065786365656473206260008201527f616c616e63650000000000000000000000000000000000000000000000000000602082015250565b7f6269642061756e6374696f6e20656e6465640000000000000000000000000000600082015250565b7f61756e6374696f6e206973206e6f7420656e6465642079657400000000000000600082015250565b7f656e643a2061756e6374696f6e206c6976650000000000000000000000000000600082015250565b7f73616c65206973206e6f74206163746976650000000000000000000000000000600082015250565b7f61756e6374696f6e206973206e6f74206c697665000000000000000000000000600082015250565b7f746f6f206c6f7720626964000000000000000000000000000000000000000000600082015250565b7f73746172743a206e6f7420656e6f75676820766f746572730000000000000000600082015250565b7f45524332303a206275726e2066726f6d20746865207a65726f2061646472657360008201527f7300000000000000000000000000000000000000000000000000000000000000602082015250565b7f45524332303a207472616e736665722066726f6d20746865207a65726f20616460008201527f6472657373000000000000000000000000000000000000000000000000000000602082015250565b50565b7f45524332303a20617070726f76652066726f6d20746865207a65726f2061646460008201527f7265737300000000000000000000000000000000000000000000000000000000602082015250565b7f496e697469616c697a61626c653a20636f6e7472616374206973206e6f74206960008201527f6e697469616c697a696e67000000000000000000000000000000000000000000602082015250565b7f6e6f2072656465656d0000000000000000000000000000000000000000000000600082015250565b7f45524332303a2064656372656173656420616c6c6f77616e63652062656c6f7760008201527f207a65726f000000000000000000000000000000000000000000000000000000602082015250565b7f45524332303a206d696e7420746f20746865207a65726f206164647265737300600082015250565b600481106134bb576134ba612ede565b5b50565b6134c781612ced565b81146134d257600080fd5b50565b6134de81612d7c565b81146134e957600080fd5b5056fea26469706673582212207d97d4fa7d2c56d572cbf169436792b1c52b39c4f32d267084816834c800816d64736f6c63430008020033",
  "immutableReferences": {},
  "source": "// SPDX-License-Identifier: MIT\n\npragma solidity ^0.8.2;\n\nimport \"@openzeppelin/contracts/token/ERC721/ERC721.sol\";\nimport \"@openzeppelin/contracts-upgradeable/token/ERC20/ERC20Upgradeable.sol\";\nimport \"@openzeppelin/contracts-upgradeable/token/ERC721/utils/ERC721HolderUpgradeable.sol\";\n\ncontract TokenVault is ERC20Upgradeable, ERC721HolderUpgradeable {\n    address public token;\n    uint256 public id;\n\n    uint256 public aunctionLength;\n    uint256 public aunctionEnd;\n    uint256 public livePrice;\n\n    address payable public winning;\n\n    uint256 public constant RESERVE_PRICE = 0.08 ether;\n    uint256 public constant MIN_VOTE_PERCENTAGE = 250; // 25%\n    uint256 public constant MIN_BID_INCREASE = 50; // 5%\n\n    enum State {\n        inactive,\n        live,\n        ended,\n        redeemed\n    }\n\n    State public aunctionState;\n\n    address public curator;\n    uint256 public fee;\n\n    uint256 public votingTokens;\n    // @notice a mapping of users to their desired token price\n    mapping(address => uint256) public userPrices;\n\n    function initialize(\n        address _curator,\n        string memory _name,\n        string memory _symbol,\n        uint256 _supply,\n        address _token,\n        uint256 _id\n    ) external {\n        __ERC20_init(_name, _symbol);\n        __ERC721Holder_init();\n        token = _token;\n        id = _id;\n        _mint(_curator, _supply);\n    }\n\n    // @notice kick off an auction. Must send ReservePrice in ETH\n    function start() external payable {\n        require(aunctionState == State.inactive, \"sale is not active\");\n        require(\n            msg.value > RESERVE_PRICE,\n            \"start: not enough ether to start an aunction\"\n        );\n        require(\n            votingTokens >= MIN_VOTE_PERCENTAGE,\n            \"start: not enough voters\"\n        );\n\n        aunctionEnd = block.timestamp + aunctionLength;\n        aunctionState = State.live;\n        livePrice = msg.value;\n        winning = payable(msg.sender);\n    }\n\n    // @notice an external function to place bid on the nft\n    function bid() external payable {\n        require(aunctionState == State.live, \"aunction is not live\");\n        uint256 increaseBy = MIN_BID_INCREASE + 1000;\n        require(msg.value * 1000 >= livePrice * increaseBy, \"too low bid\");\n        require(block.timestamp < aunctionEnd, \"bid aunction ended\");\n\n        if (aunctionEnd - block.timestamp < 15 minutes) {\n            aunctionEnd += 15 minutes;\n        }\n\n        _sendETH(winning, livePrice);\n        livePrice = msg.value;\n        winning = payable(msg.sender);\n    }\n\n    // @notice an external function to end the aunction after timer has run out\n    function end() external {\n        require(aunctionState == State.live, \"aunction has already closed\");\n        require(block.timestamp >= aunctionEnd, \"end: aunction live\");\n\n        IERC721(token).transferFrom(address(this), winning, id);\n        aunctionState = State.ended;\n    }\n\n    // @notice an external function to redeem nft by burning all tokens\n    function redeem() external {\n        require(aunctionState == State.inactive, \"no redeem\");\n        _burn(msg.sender, totalSupply());\n\n        IERC721(token).transferFrom(address(this), msg.sender, id);\n        aunctionState = State.redeemed;\n    }\n\n    // @notice an external function to burn your claimed ownership or token\n    function cash() external {\n        require(aunctionState == State.ended, \"aunction is not ended yet\");\n        uint256 bal = balanceOf(msg.sender);\n        require(bal > 0, \"zero token balance\");\n        uint256 share = (bal * address(this).balance) / totalSupply();\n        _burn(msg.sender, bal);\n\n        _sendETH(payable(msg.sender), share);\n    }\n\n    function _sendETH(address to, uint256 value) internal {\n        (bool success, ) = to.call{value: value, gas: 30000}(\"\");\n        require(success, \"Eth transfer failed\");\n    }\n}\n",
  "sourcePath": "/home/vashu/Desktop/Blockchain/fractionalize-art/contracts/ERC721TokenVault.sol",
  "compiler": {
    "name": "solc",
    "version": "0.8.2+commit.661d1103.Emscripten.clang"
  },
  "schemaVersion": "3.4.8",
  "updatedAt": "2022-09-09T03:01:40.474Z",
  "devdoc": {
    "kind": "dev",
    "methods": {
      "allowance(address,address)": {
        "details": "See {IERC20-allowance}."
      },
      "approve(address,uint256)": {
        "details": "See {IERC20-approve}. NOTE: If `amount` is the maximum `uint256`, the allowance is not updated on `transferFrom`. This is semantically equivalent to an infinite approval. Requirements: - `spender` cannot be the zero address."
      },
      "balanceOf(address)": {
        "details": "See {IERC20-balanceOf}."
      },
      "decimals()": {
        "details": "Returns the number of decimals used to get its user representation. For example, if `decimals` equals `2`, a balance of `505` tokens should be displayed to a user as `5.05` (`505 / 10 ** 2`). Tokens usually opt for a value of 18, imitating the relationship between Ether and Wei. This is the value {ERC20} uses, unless this function is overridden; NOTE: This information is only used for _display_ purposes: it in no way affects any of the arithmetic of the contract, including {IERC20-balanceOf} and {IERC20-transfer}."
      },
      "decreaseAllowance(address,uint256)": {
        "details": "Atomically decreases the allowance granted to `spender` by the caller. This is an alternative to {approve} that can be used as a mitigation for problems described in {IERC20-approve}. Emits an {Approval} event indicating the updated allowance. Requirements: - `spender` cannot be the zero address. - `spender` must have allowance for the caller of at least `subtractedValue`."
      },
      "increaseAllowance(address,uint256)": {
        "details": "Atomically increases the allowance granted to `spender` by the caller. This is an alternative to {approve} that can be used as a mitigation for problems described in {IERC20-approve}. Emits an {Approval} event indicating the updated allowance. Requirements: - `spender` cannot be the zero address."
      },
      "name()": {
        "details": "Returns the name of the token."
      },
      "onERC721Received(address,address,uint256,bytes)": {
        "details": "See {IERC721Receiver-onERC721Received}. Always returns `IERC721Receiver.onERC721Received.selector`."
      },
      "symbol()": {
        "details": "Returns the symbol of the token, usually a shorter version of the name."
      },
      "totalSupply()": {
        "details": "See {IERC20-totalSupply}."
      },
      "transfer(address,uint256)": {
        "details": "See {IERC20-transfer}. Requirements: - `to` cannot be the zero address. - the caller must have a balance of at least `amount`."
      },
      "transferFrom(address,address,uint256)": {
        "details": "See {IERC20-transferFrom}. Emits an {Approval} event indicating the updated allowance. This is not required by the EIP. See the note at the beginning of {ERC20}. NOTE: Does not update the allowance if the current allowance is the maximum `uint256`. Requirements: - `from` and `to` cannot be the zero address. - `from` must have a balance of at least `amount`. - the caller must have allowance for ``from``'s tokens of at least `amount`."
      }
    },
    "version": 1
  },
  "userdoc": {
    "kind": "user",
    "methods": {},
    "version": 1
  }
}